{
  "contractName": "AdvancedStorage",
  "abi": [
    {
      "inputs": [
        {
          "internalType": "uint256",
          "name": "",
          "type": "uint256"
        }
      ],
      "name": "ids",
      "outputs": [
        {
          "internalType": "uint256",
          "name": "",
          "type": "uint256"
        }
      ],
      "stateMutability": "view",
      "type": "function",
      "constant": true
    },
    {
      "inputs": [
        {
          "internalType": "uint256",
          "name": "id",
          "type": "uint256"
        }
      ],
      "name": "add",
      "outputs": [],
      "stateMutability": "nonpayable",
      "type": "function"
    },
    {
      "inputs": [
        {
          "internalType": "uint256",
          "name": "position",
          "type": "uint256"
        }
      ],
      "name": "get",
      "outputs": [
        {
          "internalType": "uint256",
          "name": "",
          "type": "uint256"
        }
      ],
      "stateMutability": "view",
      "type": "function",
      "constant": true
    },
    {
      "inputs": [],
      "name": "getAll",
      "outputs": [
        {
          "internalType": "uint256[]",
          "name": "",
          "type": "uint256[]"
        }
      ],
      "stateMutability": "view",
      "type": "function",
      "constant": true
    },
    {
      "inputs": [],
      "name": "length",
      "outputs": [
        {
          "internalType": "uint256",
          "name": "",
          "type": "uint256"
        }
      ],
      "stateMutability": "view",
      "type": "function",
      "constant": true
    }
  ],
  "bytecode": "0x608060405234801561001057600080fd5b506103c6806100206000396000f3fe608060405234801561001057600080fd5b50600436106100575760003560e01c80631003e2d21461005c5780631f7b6d321461007857806353ed5143146100965780639507d39a146100b4578063fac333ac146100e4575b600080fd5b6100766004803603810190610071919061022a565b610114565b005b610080610140565b60405161008d9190610266565b60405180910390f35b61009e61014c565b6040516100ab919061033f565b60405180910390f35b6100ce60048036038101906100c9919061022a565b6101a4565b6040516100db9190610266565b60405180910390f35b6100fe60048036038101906100f9919061022a565b6101cb565b60405161010b9190610266565b60405180910390f35b600081908060018154018082558091505060019003906000526020600020016000909190919091505550565b60008080549050905090565b6060600080548060200260200160405190810160405280929190818152602001828054801561019a57602002820191906000526020600020905b815481526020019060010190808311610186575b5050505050905090565b60008082815481106101b9576101b8610361565b5b90600052602060002001549050919050565b600081815481106101db57600080fd5b906000526020600020016000915090505481565b600080fd5b6000819050919050565b610207816101f4565b811461021257600080fd5b50565b600081359050610224816101fe565b92915050565b6000602082840312156102405761023f6101ef565b5b600061024e84828501610215565b91505092915050565b610260816101f4565b82525050565b600060208201905061027b6000830184610257565b92915050565b600081519050919050565b600082825260208201905092915050565b6000819050602082019050919050565b6102b6816101f4565b82525050565b60006102c883836102ad565b60208301905092915050565b6000602082019050919050565b60006102ec82610281565b6102f6818561028c565b93506103018361029d565b8060005b8381101561033257815161031988826102bc565b9750610324836102d4565b925050600181019050610305565b5085935050505092915050565b6000602082019050818103600083015261035981846102e1565b905092915050565b7f4e487b7100000000000000000000000000000000000000000000000000000000600052603260045260246000fdfea2646970667358221220b492edfc0c79cd386c77c509bcb008c03225f2402a0067fc9fd3e23747e9489664736f6c63430008110033",
  "immutableReferences": {},
  "source": "// SPDX-License-Identifier: MIT\n\npragma solidity ^0.8.17;\n\ncontract AdvancedStorage {\n    uint256[] public ids;\n\n    function add(uint256 id) public {\n        ids.push(id);\n    }\n\n    function get(uint256 position) public view returns (uint256) {\n        return ids[position];\n    }\n\n    function getAll() public view returns (uint256[] memory) {\n        return ids;\n    }\n\n    function length() public view returns (uint256) {\n        return ids.length;\n    }\n}\n",
  "sourcePath": "/home/godlikemouse/code/eth-dapp/contracts/AdvancedStorage.sol",
  "compiler": {
    "name": "solc",
    "version": "0.8.17+commit.8df45f5f.Emscripten.clang"
  },
  "schemaVersion": "3.4.11",
  "updatedAt": "2023-02-28T21:11:53.499Z",
  "networkType": "ethereum",
  "devdoc": {
    "kind": "dev",
    "methods": {},
    "version": 1
  },
  "userdoc": {
    "kind": "user",
    "methods": {},
    "version": 1
  }
}