{
  "contractName": "MappingPayable",
  "abi": [
    {
      "inputs": [],
      "stateMutability": "nonpayable",
      "type": "constructor"
    },
    {
      "inputs": [],
      "name": "deposit",
      "outputs": [],
      "stateMutability": "payable",
      "type": "function",
      "payable": true
    },
    {
      "inputs": [
        {
          "internalType": "address",
          "name": "_address",
          "type": "address"
        }
      ],
      "name": "balanceOf",
      "outputs": [
        {
          "internalType": "uint256",
          "name": "",
          "type": "uint256"
        }
      ],
      "stateMutability": "view",
      "type": "function",
      "constant": true
    },
    {
      "inputs": [],
      "name": "balance",
      "outputs": [
        {
          "internalType": "uint256",
          "name": "",
          "type": "uint256"
        }
      ],
      "stateMutability": "view",
      "type": "function",
      "constant": true
    },
    {
      "inputs": [
        {
          "internalType": "uint256",
          "name": "_amount",
          "type": "uint256"
        }
      ],
      "name": "withdraw",
      "outputs": [],
      "stateMutability": "nonpayable",
      "type": "function"
    }
  ],
  "bytecode": "0x608060405234801561001057600080fd5b5033600260006101000a81548173ffffffffffffffffffffffffffffffffffffffff021916908373ffffffffffffffffffffffffffffffffffffffff1602179055506106bf806100616000396000f3fe60806040526004361061003f5760003560e01c80632e1a7d4d1461004457806370a082311461006d578063b69ef8a8146100aa578063d0e30db0146100d5575b600080fd5b34801561005057600080fd5b5061006b600480360381019061006691906103db565b6100df565b005b34801561007957600080fd5b50610094600480360381019061008f9190610466565b610218565b6040516100a191906104a2565b60405180910390f35b3480156100b657600080fd5b506100bf610326565b6040516100cc91906104a2565b60405180910390f35b6100dd610330565b005b6000803373ffffffffffffffffffffffffffffffffffffffff1673ffffffffffffffffffffffffffffffffffffffff16815260200190815260200160002054811115610160576040517f08c379a000000000000000000000000000000000000000000000000000000000815260040161015790610540565b60405180910390fd5b8060016000828254610172919061058f565b92505081905550806000803373ffffffffffffffffffffffffffffffffffffffff1673ffffffffffffffffffffffffffffffffffffffff16815260200190815260200160002060008282546101c7919061058f565b925050819055503373ffffffffffffffffffffffffffffffffffffffff166108fc829081150290604051600060405180830381858888f19350505050158015610214573d6000803e3d6000fd5b5050565b60003373ffffffffffffffffffffffffffffffffffffffff168273ffffffffffffffffffffffffffffffffffffffff1614806102a15750600260009054906101000a900473ffffffffffffffffffffffffffffffffffffffff1673ffffffffffffffffffffffffffffffffffffffff163373ffffffffffffffffffffffffffffffffffffffff16145b6102e0576040517f08c379a00000000000000000000000000000000000000000000000000000000081526004016102d790610635565b60405180910390fd5b6000808373ffffffffffffffffffffffffffffffffffffffff1673ffffffffffffffffffffffffffffffffffffffff168152602001908152602001600020549050919050565b6000600154905090565b346000803373ffffffffffffffffffffffffffffffffffffffff1673ffffffffffffffffffffffffffffffffffffffff168152602001908152602001600020600082825461037e9190610655565b9250508190555034600160008282546103979190610655565b92505081905550565b600080fd5b6000819050919050565b6103b8816103a5565b81146103c357600080fd5b50565b6000813590506103d5816103af565b92915050565b6000602082840312156103f1576103f06103a0565b5b60006103ff848285016103c6565b91505092915050565b600073ffffffffffffffffffffffffffffffffffffffff82169050919050565b600061043382610408565b9050919050565b61044381610428565b811461044e57600080fd5b50565b6000813590506104608161043a565b92915050565b60006020828403121561047c5761047b6103a0565b5b600061048a84828501610451565b91505092915050565b61049c816103a5565b82525050565b60006020820190506104b76000830184610493565b92915050565b600082825260208201905092915050565b7f57697468647261776c20616d6f756e742065786365656473206163636f756e7460008201527f2062616c616e6365000000000000000000000000000000000000000000000000602082015250565b600061052a6028836104bd565b9150610535826104ce565b604082019050919050565b600060208201905081810360008301526105598161051d565b9050919050565b7f4e487b7100000000000000000000000000000000000000000000000000000000600052601160045260246000fd5b600061059a826103a5565b91506105a5836103a5565b92508282039050818111156105bd576105bc610560565b5b92915050565b7f496e76616c6964207065726d697373696f6e20746f207669657720616464726560008201527f73732062616c616e63652e000000000000000000000000000000000000000000602082015250565b600061061f602b836104bd565b915061062a826105c3565b604082019050919050565b6000602082019050818103600083015261064e81610612565b9050919050565b6000610660826103a5565b915061066b836103a5565b925082820190508082111561068357610682610560565b5b9291505056fea264697066735822122014c412078f7c46b5451c6ba5d561baecf6a7ba1bceac0b41d536212e3ba94e5f64736f6c63430008110033",
  "immutableReferences": {},
  "source": "// SPDX-License-Identifier: MIT\n\npragma solidity ^0.8.17;\n\n// This simple contract demonstrates the ability to receive payments and map\n// those payments to account addresses.\n\ncontract MappingPayable {\n    mapping(address => uint256) balances;\n    uint256 total;\n    address owner;\n\n    // The construtor will assign the owner address based on the\n    // address responsible for deplying the contract.\n    constructor() {\n        owner = msg.sender;\n    }\n\n    // The external keyword is used as an optimization technique to\n    // lower the cost of gas used when calling this function\n    // see: https://docs.alchemy.com/docs/solidity-payable-functions for\n    // details.  The payable keyword is used to allow the method to receive\n    // ether.\n    function deposit() external payable {\n        balances[msg.sender] += msg.value;\n        total += msg.value;\n    }\n\n    // This method retrieves the balance of a specified address.  The owner can\n    // retrieve any balance.  Non-owner requests can only retrive the balance of\n    // their own address.\n    function balanceOf(address _address) public view returns (uint256) {\n        require(\n            _address == msg.sender || msg.sender == owner,\n            \"Invalid permission to view address balance.\"\n        );\n        return balances[_address];\n    }\n\n    // This method retrieves the total balance for the contract.\n    function balance() public view returns (uint256) {\n        return total;\n    }\n\n    // This method allows for the issuer to withdraw from their own account.\n    function withdraw(uint256 _amount) public {\n        require(\n            _amount <= balances[msg.sender],\n            \"Withdrawl amount exceeds account balance\"\n        );\n\n        total -= _amount;\n        balances[msg.sender] -= _amount;\n        payable(msg.sender).transfer(_amount);\n    }\n}\n",
  "sourcePath": "/home/godlikemouse/code/learn-smart-contracts/contracts/MappingPayable.sol",
  "compiler": {
    "name": "solc",
    "version": "0.8.17+commit.8df45f5f.Emscripten.clang"
  },
  "schemaVersion": "3.4.11",
  "updatedAt": "2023-03-02T05:35:18.582Z",
  "networkType": "ethereum",
  "devdoc": {
    "kind": "dev",
    "methods": {},
    "version": 1
  },
  "userdoc": {
    "kind": "user",
    "methods": {},
    "version": 1
  }
}