{
  "contractName": "Crud",
  "abi": [
    {
      "inputs": [],
      "name": "nextId",
      "outputs": [
        {
          "internalType": "uint256",
          "name": "",
          "type": "uint256"
        }
      ],
      "stateMutability": "view",
      "type": "function",
      "constant": true
    },
    {
      "inputs": [
        {
          "internalType": "uint256",
          "name": "",
          "type": "uint256"
        }
      ],
      "name": "users",
      "outputs": [
        {
          "internalType": "uint256",
          "name": "id",
          "type": "uint256"
        },
        {
          "internalType": "string",
          "name": "name",
          "type": "string"
        }
      ],
      "stateMutability": "view",
      "type": "function",
      "constant": true
    },
    {
      "inputs": [
        {
          "internalType": "string",
          "name": "_name",
          "type": "string"
        }
      ],
      "name": "create",
      "outputs": [],
      "stateMutability": "nonpayable",
      "type": "function"
    },
    {
      "inputs": [
        {
          "internalType": "uint256",
          "name": "_id",
          "type": "uint256"
        }
      ],
      "name": "read",
      "outputs": [
        {
          "internalType": "uint256",
          "name": "",
          "type": "uint256"
        },
        {
          "internalType": "string",
          "name": "",
          "type": "string"
        }
      ],
      "stateMutability": "view",
      "type": "function",
      "constant": true
    },
    {
      "inputs": [
        {
          "internalType": "uint256",
          "name": "_id",
          "type": "uint256"
        },
        {
          "internalType": "string",
          "name": "_name",
          "type": "string"
        }
      ],
      "name": "update",
      "outputs": [],
      "stateMutability": "nonpayable",
      "type": "function"
    },
    {
      "inputs": [
        {
          "internalType": "uint256",
          "name": "_id",
          "type": "uint256"
        }
      ],
      "name": "destroy",
      "outputs": [],
      "stateMutability": "nonpayable",
      "type": "function"
    }
  ],
  "bytecode": "0x608060405234801561001057600080fd5b50610c20806100206000396000f3fe608060405234801561001057600080fd5b50600436106100625760003560e01c8063365b98b21461006757806361b8ce8c146100985780639d118770146100b6578063b6a46b3b146100d2578063ed2e5a97146100ee578063f745630f1461011f575b600080fd5b610081600480360381019061007c9190610509565b61013b565b60405161008f9291906105d5565b60405180910390f35b6100a06101f7565b6040516100ad9190610605565b60405180910390f35b6100d060048036038101906100cb9190610509565b6101fd565b005b6100ec60048036038101906100e79190610755565b610245565b005b61010860048036038101906101039190610509565b6102be565b6040516101169291906105d5565b60405180910390f35b6101396004803603810190610134919061079e565b610385565b005b6000818154811061014b57600080fd5b906000526020600020906002020160009150905080600001549080600101805461017490610829565b80601f01602080910402602001604051908101604052809291908181526020018280546101a090610829565b80156101ed5780601f106101c2576101008083540402835291602001916101ed565b820191906000526020600020905b8154815290600101906020018083116101d057829003601f168201915b5050505050905082565b60015481565b6000610208826103c4565b815481106102195761021861085a565b5b90600052602060002090600202016000808201600090556001820160006102409190610462565b505050565b60006040518060400160405280600160008154610261906108b8565b91905081905581526020018381525090806001815401808255809150506001900390600052602060002090600202016000909190919091506000820151816000015560208201518160010190816102b89190610aac565b50505050565b600060608260006102ce856103c4565b815481106102df576102de61085a565b5b90600052602060002090600202016001018080546102fc90610829565b80601f016020809104026020016040519081016040528092919081815260200182805461032890610829565b80156103755780601f1061034a57610100808354040283529160200191610375565b820191906000526020600020905b81548152906001019060200180831161035857829003601f168201915b5050505050905091509150915091565b806000610391846103c4565b815481106103a2576103a161085a565b5b906000526020600020906002020160010190816103bf9190610aac565b505050565b600080600090505b6000805490508110156104215782600082815481106103ee576103ed61085a565b5b9060005260206000209060020201600001540361040e578091505061045d565b8080610419906108b8565b9150506103cc565b506040517f08c379a000000000000000000000000000000000000000000000000000000000815260040161045490610bca565b60405180910390fd5b919050565b50805461046e90610829565b6000825580601f10610480575061049f565b601f01602090049060005260206000209081019061049e91906104a2565b5b50565b5b808211156104bb5760008160009055506001016104a3565b5090565b6000604051905090565b600080fd5b600080fd5b6000819050919050565b6104e6816104d3565b81146104f157600080fd5b50565b600081359050610503816104dd565b92915050565b60006020828403121561051f5761051e6104c9565b5b600061052d848285016104f4565b91505092915050565b61053f816104d3565b82525050565b600081519050919050565b600082825260208201905092915050565b60005b8381101561057f578082015181840152602081019050610564565b60008484015250505050565b6000601f19601f8301169050919050565b60006105a782610545565b6105b18185610550565b93506105c1818560208601610561565b6105ca8161058b565b840191505092915050565b60006040820190506105ea6000830185610536565b81810360208301526105fc818461059c565b90509392505050565b600060208201905061061a6000830184610536565b92915050565b600080fd5b600080fd5b7f4e487b7100000000000000000000000000000000000000000000000000000000600052604160045260246000fd5b6106628261058b565b810181811067ffffffffffffffff821117156106815761068061062a565b5b80604052505050565b60006106946104bf565b90506106a08282610659565b919050565b600067ffffffffffffffff8211156106c0576106bf61062a565b5b6106c98261058b565b9050602081019050919050565b82818337600083830152505050565b60006106f86106f3846106a5565b61068a565b90508281526020810184848401111561071457610713610625565b5b61071f8482856106d6565b509392505050565b600082601f83011261073c5761073b610620565b5b813561074c8482602086016106e5565b91505092915050565b60006020828403121561076b5761076a6104c9565b5b600082013567ffffffffffffffff811115610789576107886104ce565b5b61079584828501610727565b91505092915050565b600080604083850312156107b5576107b46104c9565b5b60006107c3858286016104f4565b925050602083013567ffffffffffffffff8111156107e4576107e36104ce565b5b6107f085828601610727565b9150509250929050565b7f4e487b7100000000000000000000000000000000000000000000000000000000600052602260045260246000fd5b6000600282049050600182168061084157607f821691505b602082108103610854576108536107fa565b5b50919050565b7f4e487b7100000000000000000000000000000000000000000000000000000000600052603260045260246000fd5b7f4e487b7100000000000000000000000000000000000000000000000000000000600052601160045260246000fd5b60006108c3826104d3565b91507fffffffffffffffffffffffffffffffffffffffffffffffffffffffffffffffff82036108f5576108f4610889565b5b600182019050919050565b60008190508160005260206000209050919050565b60006020601f8301049050919050565b600082821b905092915050565b6000600883026109627fffffffffffffffffffffffffffffffffffffffffffffffffffffffffffffffff82610925565b61096c8683610925565b95508019841693508086168417925050509392505050565b6000819050919050565b60006109a96109a461099f846104d3565b610984565b6104d3565b9050919050565b6000819050919050565b6109c38361098e565b6109d76109cf826109b0565b848454610932565b825550505050565b600090565b6109ec6109df565b6109f78184846109ba565b505050565b5b81811015610a1b57610a106000826109e4565b6001810190506109fd565b5050565b601f821115610a6057610a3181610900565b610a3a84610915565b81016020851015610a49578190505b610a5d610a5585610915565b8301826109fc565b50505b505050565b600082821c905092915050565b6000610a8360001984600802610a65565b1980831691505092915050565b6000610a9c8383610a72565b9150826002028217905092915050565b610ab582610545565b67ffffffffffffffff811115610ace57610acd61062a565b5b610ad88254610829565b610ae3828285610a1f565b600060209050601f831160018114610b165760008415610b04578287015190505b610b0e8582610a90565b865550610b76565b601f198416610b2486610900565b60005b82811015610b4c57848901518255600182019150602085019450602081019050610b27565b86831015610b695784890151610b65601f891682610a72565b8355505b6001600288020188555050505b505050505050565b7f55736572206e6f7420666f756e642e0000000000000000000000000000000000600082015250565b6000610bb4600f83610550565b9150610bbf82610b7e565b602082019050919050565b60006020820190508181036000830152610be381610ba7565b905091905056fea26469706673582212203882c3af2d7ea331f3da7ad2115911472107ccf8c3983b62975917b8e076389164736f6c63430008110033",
  "immutableReferences": {},
  "source": "// SPDX-License-Identifier: MIT\n\npragma solidity ^0.8.17;\n\ncontract Crud {\n    struct User {\n        uint256 id;\n        string name;\n    }\n    User[] public users;\n    uint256 public nextId;\n\n    // This method creates a new User type and adds it to users.\n    function create(string memory _name) public {\n        users.push(User(++nextId, _name));\n    }\n\n    // This method is a private convenience method for finding the index\n    // of a user by id.\n    function find(uint256 _id) private view returns (uint256) {\n        for (uint256 i = 0; i < users.length; i++) {\n            if (users[i].id == _id) {\n                return i;\n            }\n        }\n        revert(\"User not found.\");\n    }\n\n    // This method demonstrates how to return multiple values.  The memory\n    // keyword is required here due to string being a complex type.\n    function read(uint256 _id) public view returns (uint256, string memory) {\n        return (_id, users[find(_id)].name);\n    }\n\n    // This method updates a user's name by id.\n    function update(uint256 _id, string memory _name) public {\n        users[find(_id)].name = _name;\n    }\n\n    // This method removes a user by id.\n    function destroy(uint256 _id) public {\n        delete users[find(_id)];\n    }\n}\n",
  "sourcePath": "/home/godlikemouse/code/eth-dapp/contracts/Crud.sol",
  "compiler": {
    "name": "solc",
    "version": "0.8.17+commit.8df45f5f.Emscripten.clang"
  },
  "schemaVersion": "3.4.11",
  "updatedAt": "2023-02-28T22:52:15.988Z",
  "networkType": "ethereum",
  "devdoc": {
    "kind": "dev",
    "methods": {},
    "version": 1
  },
  "userdoc": {
    "kind": "user",
    "methods": {},
    "version": 1
  }
}